:020000040000FA
:020000000528D1
:08000800B82872200D208420AD
:1000100090209F20AD2064000B288312031314301E
:10002000D0000130D1001E30D2000530D3001E3088
:10003000D4000530D5000230D6000330D80004309B
:10004000D9000530DA000530AA000830DB0008309E
:10005000AB000630DC000930DD000230DE0002308B
:10006000AE000930DF000930AF000630E00002309A
:10007000B0000430E1000930B1000230E200093084
:10008000E3000630E4000630B4000430E50004303C
:10009000B5000230E6000930E7000530D700053032
:1000A000B8000130A0005E2088002008682087008A
:1000B0005008BB000A30BA00C401080082070034AF
:1000C0002C34243431345234943494345234003443
:1000D0008207003408340834083408340234043405
:1000E00008340034831603138501860188018701D3
:1000F000871783160317880189018312031385016B
:1001000086018701880108008316031381120115F7
:1001100081140114811183120313BD308100080082
:1001200083120313901090161016831203132B30B2
:100130008E00CF308F008312031310140800831633
:100140000313193099002430980083160317871180
:1001500083120313981718160800831203130B1742
:100160008B16831603130C148C160C128B170800B5
:10017000831203130C183B210B19C7208C1A6E2213
:100180000C1A832309008312031385140800CB2063
:10019000D1200B11080020085E208800200868206C
:1001A000870005140030BC0000303C06031DDA282F
:1001B000300E302901303C06031DE028310E302975
:1001C00002303C06031DE628320E302903303C067F
:1001D000031DEC28330E302904303C06031DF228A1
:1001E000280E302905303C06031DF828290E302939
:1001F00006303C06031DFE282A0E302907303C0637
:10020000031D04292B0E302908303C06031D0A2942
:100210002C0E302909303C06031D10292D0E3029E3
:100220000A303C06031D16292E0E30290B303C06E1
:10023000031D1C292F0E30290C303C06031D2229DA
:10024000340E30290D303C06031D2829350E302987
:100250000E303C06031D2E29360E3029370E30296C
:100260003C07831203138600051005140130BC07F8
:10027000831CD42808008312031310108312031365
:10028000BA0B7F2984219521A621B721C821D92124
:10029000EA21FB21BB0B7C2901302006031D5229DA
:1002A0000C227B2902302006031D58290F227B29AE
:1002B00003302006031D5E291F227B2904302006FF
:1002C000031D642922227B2905302006031D6A298B
:1002D00031227B2906302006031D702934227B2918
:1002E00007302006031D762945227B290830200689
:1002F000031D7B296822A0000A30BA007C239520C8
:10030000831203130C1008000130A902031C892971
:1003100008000930A9000130A802031C9029080038
:100320000030A9000030A80008000130AB02031C17
:100330009A2908000930AB000130AA02031CA12948
:1003400008000030AB000030AA0008000130AD0208
:10035000031CAB2908000930AD000130AC02031CBE
:10036000B22908000030AD000030AC0008000130B8
:10037000AF02031CBC2908000930AF000130AE02F7
:10038000031CC32908000030AF000030AE00080095
:100390000130B102031CCD2908000930B100013041
:1003A000B002031CD42908000030B1000030B000B6
:1003B00008000130B302031CDE2908000930B30035
:1003C0000130B202031CE52908000030B300003000
:1003D000B20008000130B502031CEF290800093003
:1003E000B5000130B402031CF62908000030B50046
:1003F0000030B40008000130B702031C002A0800D6
:100400000930B7000130B602031C072A080000308B
:10041000B7000030B60008005108BB000234B80B2A
:100420001C2A5208BB005C08AC005D08AD006208E5
:10043000B2006308B30003345108BB000134530811
:10044000BB0004345408BB005808A8005908A90090
:100450006008B0006108B1006608B6006708B70020
:1004600005345508BB0006345708B8005008BB00D7
:100470005A08AA005B08AB005E08AE005F08AF0038
:100480006408B4006508B50001345608BB000030AC
:10049000A8000030A9000030AA000030AB000030F6
:1004A000AC000030AD000030AE000030AF000030D6
:1004B000B0000030B1000030B2000030B3000030B6
:1004C000B4000030B5000030B6000030B70008348A
:1004D000B9080319342A5608BB00073483120313E2
:1004E0001A08003044060319812A01304406031912
:1004F000882A0230440603198E2A03304406031961
:10050000912A1A08BF0002303F06031D982A9A2A32
:100510001A08C0009A2A1A08C1009A2A1A08C200AA
:100520009A2A1A08C30003304306031D982AA32AF7
:100530009C220800C40A0800BF01C001C101C20119
:10054000C301C4010800503040060319A82AAB2A91
:100550007723D000752B513040060319B02AB32AF7
:100560007723D100752B523040060319B82ABB2AD5
:100570007723D200752B533040060319C02AC32AB3
:100580007723D300752B543040060319C82ACB2A91
:100590007723D400752B553040060319D02AD32A6F
:1005A0007723D500752B563040060319D82ADB2A4D
:1005B0007723D600752B573040060319E02AE32A2B
:1005C0007723D700752B393040060319E82AF42A1F
:1005D0007723B900031DEF2A0630A000752B0730E2
:1005E000A0000130BB00752B583040060319F92AD2
:1005F000FC2A7723D800752B593040060319012BAC
:10060000042B7723D900752B5A3040060319092B88
:100610000C2B7723DA00752B5B3040060319112B66
:10062000142B7723DB00752B5C3040060319192B44
:100630001C2B7723DC00752B5D3040060319212B22
:10064000242B7723DD00752B5E3040060319292B00
:100650002C2B7723DE00752B5F3040060319312BDE
:10066000342B7723DF00752B603040060319392BBC
:100670003C2B7723E000752B613040060319412B9A
:10068000442B7723E100752B623040060319492B78
:100690004C2B7723E200752B633040060319512B56
:1006A000542B7723E300752B643040060319592B34
:1006B0005C2B7723E400752B653040060319612B12
:1006C000642B7723E500752B663040060319692BF0
:1006D0006C2B7723E600752B673040060319722BCD
:1006E0009C2208007723E700752BC401080042080C
:1006F00008000F3042050800831603130C168312FE
:1007000003130030C500831603130C1E0800831268
:1007100003134508A123C6000A3046060319962B89
:100720008312031346089900C50A080083120313B5
:1007300046089900C50A831603130C12831203138B
:10074000080000304506031DA62B3C340130450649
:10075000031DAB2B3C3402304506031DB02B3C344B
:1007600003304506031DB62B20080800043045065B
:10077000031DBC2B5008080005304506031DC22B85
:100780005108080006304506031DC82B5208080012
:1007900007304506031DCE2B5308080008304506D8
:1007A000031DD42B5408080009304506031DDA2B1D
:1007B000550808000A304506031DE02B56080800BE
:1007C0000B304506031DE62B280808000C304506B3
:1007D000031DEC2B290808000D304506031DF22BE4
:1007E0002A0808000E304506031DF82B2B080800C8
:1007F0000F304506031DFE2B2C080800103045065F
:10080000031D042C2D08080011304506031D0A2C79
:100810002E08080012304506031D102C2F08080072
:1008200013304506031D162C300808001430450609
:10083000031D1C2C3108080015304506031D222C11
:100840003208080016304506031D282C330808001E
:1008500017304506031D2E2C3408080018304506B5
:10086000031D342C3508080019304506031D3A2CA9
:10087000360808001A304506031D402C37080800CA
:100880001B304506031D462C570808001C30450642
:10089000031D4C2C390808001D304506031D512C42
:1008A0003E341E304506031D562C3E341F3045068F
:1008B000031D5B2C3E3420304506031DFF340A34F3
:00000001FF
